:100000000C942A000C9447000C9447000C94470071
:100010000C9447000C9447000C9447000C94470044
:100020000C9447000C9447000C9449000C94470032
:100030000C9447000C9447000C9447000C94470024
:100040000C9447000C9447000C9447000C94470014
:100050000C94470011241FBECFE5D8E0DEBFCDBF12
:1000600010E0A0E6B0E0E0EFF3E002C005900D92F2
:10007000A239B107D9F710E0A2E9B0E001C01D92A2
:10008000AC3BB107E1F70E9451010C94F6010C94CE
:1000900000001F920F920FB60F9211248F939F931F
:1000A00080919C0090919D00019690939D0080937B
:1000B0009C0080919C0090919D008436910551F4A4
:1000C00010929D0010929C0081E090E090939F0020
:1000D00080939E009F918F910F900FBE0F901F9065
:1000E000189597FD09C08F3F910519F014F08FEF17
:1000F00090E0979AAB9808C081302FEF920714F4E4
:1001000081E09FEF9798AB9A77FD09C06F3F71052B
:1001100019F014F06FEF70E0939A929808C0613074
:100120002FEF720714F461E07FEF9398929A97FF94
:1001300003C09195819591099BBD8ABD77FF03C04E
:1001400071956195710979BD68BD089583B380711A
:1001500090E09093A1008093A00083B3807290E020
:100160009093A3008093A20083B3807490E0909357
:10017000A5008093A40083B3807890E09093A700BB
:100180008093A60089B381708093A8001092A90083
:1001900089B3827090E09093AB008093AA0089B3FA
:1001A000847090E09093AD008093AC0089B3887028
:1001B00090E09093AF008093AE0089B3807190E09F
:1001C0009093B1008093B00089B3807290E09093D7
:1001D000B3008093B20089B3807490E09093B5002F
:1001E0008093B40089B3807890E09093B7008093B7
:1001F000B6000895CF93DF93E0EAF0E0AAE7B0E01D
:1002000060E070E080E090E021913191CD91DD914E
:100210002C9FA0012D9F500D3C9F500D1124840F49
:10022000951F620F731F20E0E83BF20769F7611525
:10023000710541F00E94CE01CB017093950060934F
:10024000940004C08091940090919500DF91CF912B
:1002500008952091B8003091B9008091BA00909132
:10026000BB00B901681B790B3093BB002093BA0027
:100270008091600090916100289FA001299F500DFE
:10028000389F500D11242091960030919700629F65
:10029000C001639F900D729F900D1124840F951FD4
:1002A0000895A498D09885B3806F85BB8BB38FEFEA
:1002B0008BBB81B38C6B81BBA39A8E9887B38C6107
:1002C00087BB8FB581608FBD8EB58B608EBD8FB5BE
:1002D000806A8FBD1BBC1ABC19BC18BC83B78D606B
:1002E00083BF8CE98CBF89B7826089BF7894C0E5F1
:1002F000D0E010E110929900109298000E94A600A0
:100300000E94FA009093B9008093B8000E942901DE
:10031000BE01681B790B805B9F4F0E94710020918A
:1003200098003091990080E090E0FC01E056FF4F8A
:10033000DC01AE59BF4F0190F081E02D6D917C91B1
:10034000E69FA001E79F500DF69F500D1124240F4A
:10035000351F04968831910541F730939900209319
:10036000980050939B0040939A00232B31F460E057
:1003700070E080E090E00E947100C39AC29A809180
:100380009E0090919F00892B09F4B4CF88B38127F8
:1003900088BB10929F0010929E00ACCF97FB072E57
:1003A00016F4009407D077FD09D00E94E20107FC03
:1003B00005D03EF4909581959F4F08957095619575
:1003C0007F4F0895AA1BBB1B51E107C0AA1FBB1F8B
:1003D000A617B70710F0A61BB70B881F991F5A95D1
:1003E000A9F780959095BC01CD010895F894FFCFB1
:1003F00003000100010001000100010001000100F3
:1004000001000100010001000100C4FFCEFFE2FF76
:10041000ECFFF6FF000000000A0014001E0032008E
:020420003C009E
:00000001FF
